:1000000009C016C015C014C013C012C011C010C062
:1000100010C00EC011241FBECFE9CDBF20E0A0E666
:10002000B0E001C01D92AA36B207E1F727D0E2C1C5
:10003000E7CF1F920F920FB60F9211248F939F93C9
:10004000AF93BF938091600090916100A091620096
:10005000B09163000196A11DB11D80936000909343
:100060006100A0936200B0936300BF91AF919F9134
:100070008F910F900FBE0F901F901895CF93DF9325
:10008000CDB7DD27C350CDBF83B7826083BF8FB5A7
:1000900083608FBDF894A89580E481BD789417B8EB
:1000A00086B1826886B987B38F6187BB109265007D
:1000B00080E090E08BD1809365008091650088306E
:1000C00010F0109265006091650070E06F5F7F4FE7
:1000D0007A83698380E090E06B8378D16B816817C5
:1000E00019F080E090E079D16A8181E090E06B8343
:1000F0006DD16B81681719F081E090E06ED1EFEE61
:1001000097EF2BEF3DEF8EEFF8E0A4E0B2E0EE24A6
:10011000E39440E1D42E1FEF0DEE53EFF52E8090C7
:10012000660090906700A0906800B09069004091D0
:10013000600050916100609162007091630068946A
:1001400013F8440F551F661F771F1694D1F74819EF
:1001500059096A097B09443651056105710538F36F
:100160004091600050916100609162007091630065
:10017000689413F8440F551F661F771F1694D1F724
:100180004093660050936700609368007093690025
:1001900040916500411122C040916400411101C0AD
:1001A00088BB40916400413009F438BB4091640041
:1001B000423009F428BB40916400433009F498BBF5
:1001C00040916400443009F4E8BB409164004F5F03
:1001D00040936400453010F0109264004091650037
:1001E000413011F540916400411101C0E8BB4091DC
:1001F0006400413009F498BB40916400423009F436
:1002000028BB40916400433009F438BB409164003E
:10021000443009F488BB409164004F5F4093640010
:10022000453010F01092640040916500423011F5A5
:1002300040916400411101C088BB4091640041308D
:1002400009F4E8BB40916400423009F438BB4091A6
:100250006400433009F498BB40916400443009F4D1
:1002600028BB409164004F5F40936400453010F01C
:100270001092640040916500433089F5409164001C
:10028000411101C0D8BA40916400413009F4F8BB73
:1002900040916400423009F4A8BB409164004330AF
:1002A00009F4B8BB40916400443009F4E8BA4091C5
:1002B0006400453009F4B8BB40916400463009F44D
:1002C000A8BB40916400473009F4F8BB409164003A
:1002D0004F5F40936400483010F0109264004091EA
:1002E0006500443089F540916400411101C0E8BBCC
:1002F00040916400413009F498BB40916400423061
:1003000009F428BB40916400433009F438BB4091A4
:100310006400443009F488BB40916400453009F41E
:1003200038BB40916400463009F428BB409164001A
:10033000473009F498BB409164004F5F40936400DC
:10034000483010F01092640040916500453089F506
:1003500040916400411101C088BB4091640041306C
:1003600009F408BB40916400423009F4F8BA4091A6
:100370006400433009F418BB40916400443009F430
:10038000F8BA40916400453009F408BB409164001C
:10039000463009F488BB40916400473009F418BB2B
:1003A000409164004F5F40936400483010F0109219
:1003B000640040916500463009F418BA4091650028
:1003C000473009F0ACCE4FE148BBA9CEE199FECF52
:1003D0008EBBE09A99278DB30895262FE199FECF21
:1003E0001CBA8EBB2DBB0FB6F894E29AE19A0FBEF1
:0803F00001960895F894FFCF77
:00000001FF
