:1000000009C016C015C014C013C012C011C010C062
:1000100010C00EC011241FBECFE9CDBF20E0A0E666
:10002000B0E001C01D92AB36B207E1F727D0E2C1C4
:10003000E7CF1F920F920FB60F9211248F939F93C9
:10004000AF93BF938091610090916200A091630093
:10005000B09164000196A11DB11D80936100909341
:100060006200A0936300B0936400BF91AF919F9131
:100070008F910F900FBE0F901F90189583B78260DD
:1000800083BF8FB583608FBDF894A89580E481BD50
:10009000789417B886B1826886B987B38F6187BBB9
:1000A0001092660010926000FF24F3946FEE97EFB9
:1000B0004BEF5DEF8EEFE8E0F4E0A2E000E1E02E30
:1000C000BFEFCDEEDD24D39473EF1FE1C12E27B136
:1000D000207427B9369A3699FECF24B115B130E095
:1000E000312B8901095C11090F38114010F4D092AD
:1000F000600010916000113081F4293532406CF0BD
:1001000010926000209166002F5F2093660020917E
:100110006600293010F01092660000916100109185
:1001200062002091630030916400D4E0000F111F41
:10013000221F331FDA95D1F78090670090906800F6
:10014000A0906900B0906A00081919092A093B09B2
:10015000043611052105310508F4B9CF009161007D
:10016000109162002091630030916400D4E0000F90
:10017000111F221F331FDA95D1F7009367001093E8
:1001800068002093690030936A0020916600211175
:1001900022C020916500211101C088BB209165001B
:1001A000213009F458BB20916500223009F448BB86
:1001B00020916500233009F498BB2091650024301C
:1001C00009F468BB209165002F5F209365002530FE
:1001D00010F01092650020916600213011F52091F9
:1001E0006500211101C068BB20916500213009F430
:1001F00098BB20916500223009F448BB209165002E
:10020000233009F458BB20916500243009F488BBE1
:10021000209165002F5F20936500253010F010922B
:10022000650020916600223011F5209165002111B2
:1002300001C088BB20916500213009F468BB209182
:100240006500223009F458BB20916500233009F481
:1002500098BB20916500243009F448BB20916500CB
:100260002F5F20936500253010F0109265002091DB
:100270006600233089F520916500211101C0E8BA9C
:1002800020916500213009F4E8BB209165002230FF
:1002900009F4F8BB20916500233009F4A8BB209134
:1002A0006500243009F4F8BA20916500253009F47E
:1002B000A8BB20916500263009F4F8BB20916500A9
:1002C000273009F4E8BB209165002F5F209365007B
:1002D000283010F01092650020916600243089F5D6
:1002E00020916500211101C068BB2091650021307B
:1002F00009F498BB20916500223009F448BB209195
:100300006500233009F458BB20916500243009F4BE
:1003100088BB20916500253009F458BB2091650009
:10032000263009F448BB20916500273009F498BBBA
:10033000209165002F5F20936500283010F0109207
:10034000650020916600253089F520916500211116
:1003500001C088BB20916500213009F4C8BB209101
:100360006500223009F478BB20916500233009F440
:10037000B8BB20916500243009F478BB209165005A
:10038000253009F4C8BB20916500263009F488BBEC
:1003900020916500273009F4B8BB209165002F5FDC
:1003A00020936500283010F01092650020916600BF
:1003B000263099F420916500211101C018BA2091CE
:1003C0006500213009F4C8BA209165002F5F2093A1
:1003D0006500223010F010926500209166002730F1
:1003E00009F418BA20916600283009F070CE2FE188
:0803F00028BB6ACEF894FFCF90
:00000001FF
