:1000000009C021C020C01FC01EC01DC01CC01BC015
:1000100036C019C011241FBECFE9CDBF20E0A4E631
:10002000B0E001C01D92AC36B207E1F710E0A0E6E7
:10003000B0E0EAEFF3E002C005900D92A436B107FC
:10004000D9F742D0D8C1DCCF65E070E0A7D00097E7
:1000500011F48EEF12C08130910511F48DEF0DC0B7
:100060008230910511F48BEF08C08330910511F4B3
:1000700087EF03C0049711F48FEE88BB08951F9299
:100080000F920FB60F9211248F939F93AF93BF934C
:100090008091640090916500A0916600B091670026
:1000A0000196A11DB11D8093640090936500A093FB
:1000B0006600B0936700BF91AF919F918F910F90B1
:1000C0000FBE0F901F90189583B7826083BF8FB5C6
:1000D00083608FBDF894A89580E481BD789417B8AB
:1000E00086B1826886B987B18074816087B9369A93
:1000F0003699FECF64B185B170E0782B611571053A
:1001000019F080E090E0B8D087B38F6187BBB0D0A2
:100110002EE031E040E050E0B8D0DC01CB014E965B
:10012000A11DB11D90936B0080936A0090936900AC
:1001300080936800809168009091690018161906F4
:100140008CF482DF82E390E0E9EFF0E03197F1F7A1
:1001500000C000000197C1F780916800909169008C
:100160000197E4CFCFEF80916A0090916B006CDF34
:1001700082E390E0E9EFF0E03197F1F700C0000092
:100180000197C1F7C8BB82E390E0E9EFF0E0319757
:10019000F1F700C000000197C1F7E5CF97FB072EEC
:1001A00016F4009406D077FD08D00BD007FC05D0DC
:1001B0003EF4909581959F4F0895709561957F4F7E
:1001C0000895AA1BBB1B51E107C0AA1FBB1FA6179E
:1001D000B70710F0A61BB70B881F991F5A95A9F7F0
:1001E00080959095BC01CD010895A0E0B0E0EAEFC4
:1001F000F0E08AC0EC01688179818A819B81611578
:1002000071058105910521F464E279ED8BE597E0B4
:100210002DE133EF41E050E038D049015A0127EA9F
:1002200031E440E050E04DD069017A01C501B401EC
:100230002CEE34EF4FEF5FEF44D0022F132F9A01D3
:10024000D701C601800F911FA21FB31FB7FF03C0C4
:100250000197A109B04888839983AA83BB83BC0115
:10026000CD019F77CDB7DD27ECE065C0BEDF0895F7
:1002700080E690E0BADF08956093600070936100BB
:1002800080936200909363000895052E97FB16F407
:1002900000940FD057FD05D05ED007FC02D046F485
:1002A00008C050954095309521953F4F4F4F5F4F77
:1002B000089590958095709561957F4F8F4F9F4FD2
:1002C000089568940013E894A0E0B0E0E9E6F1E056
:1002D0001DC0EFEFE7F959016A015E23550FEE08E3
:1002E000FE2C87019B01AC019E23990F660B762F94
:1002F000CB0153D0CDB7DD27EAE01FC02F923F924C
:100300004F925F926F927F928F929F92AF92BF9225
:10031000CF92DF92EF92FF920F931F93CF93DF93D1
:10032000CDB7CA1BCDBFDD2709942A8839884888F4
:100330005F846E847D848C849B84AA84B984C88401
:10034000DF80EE80FD800C811B81AA81D981CE0FD8
:10035000CDBFCA2F0895A1E21A2EAA1BBB1BFD0117
:100360000DC0AA1FBB1FEE1FFF1FA217B307E40794
:10037000F50720F0A21BB30BE40BF50B661F771FEC
:10038000881F991F1A9469F76095709580959095CC
:100390009B01AC01BD01CF010895DF93CF939F92E4
:1003A000A0E49A2E0024D001E001F00116950795F3
:1003B000F794E794D794C794B794A79448F4106837
:1003C000A20FB31FC41FD51FE61FF71F081E191E5B
:1003D000220F331F441F551F661F771F881F991F49
:1003E0009A9421F79D01AE01BF01C00111249F9095
:0A03F000CF91DF910895F894FFCF3C
:0403FA0001000000FE
:00000001FF
